:020000040800F2
:100000000000042091290008192900081B29000874
:100010001D2900081F2900082129000800000000F0
:10002000000000000000000000000000232900087C
:1000300025290008000000002729000829290008B8
:10004000E1290008E1290008E1290008E129000868
:10005000E1290008E1290008E1290008E129000858
:10006000E1290008E1290008E1290008E129000848
:10007000E1290008E1290008E1290008E129000838
:10008000E1290008E1290008E1290008E129000828
:10009000E1290008E1290008E1290008E129000818
:1000A000E1290008E1290008E1290008E129000808
:1000B000E1290008E1290008E1290008E1290008F8
:1000C000E1290008E1290008E1290008E1290008E8
:1000D000E1290008E1290008E12900082D2900088C
:1000E000E1290008E1290008E1290008E1290008C8
:1000F000E1290008E1290008E1290008E1290008B8
:10010000E1290008E1290008E1290008E1290008A7
:10011000E1290008E1290008E1290008E129000897
:10012000E1290008E1290008E1290008E129000887
:10013000E1290008000000000000000000000000AD
:10014000000000000000000000000000E12900089D
:10015000E1290008E1290008E129000839290008FF
:10016000E1290008E1290008E1290008E129000847
:10017000E1290008E129000800000000000000005B
:10018000E1290008E1290008E1290008E129000827
:10019000E1290008E129000800000000E129000829
:1001A000000000000000000000000000E12900083D
:1001B000E1290008E129000800000000000000001B
:1001C000000000000000000000000000000000002F
:1001D000000000000000000000000000E12900080D
:1001E00010B5054C237833B9044B13B10448AFF371
:1001F00000800123237010BD840000200000000057
:100200003C2A000808B5034B1BB103490348AFF370
:10021000008008BD00000000880000203C2A000883
:1002200053B94AB9002908BF00281CBF4FF0FF315D
:100230004FF0FF3000F07AB9ADF1080C6DE904CE53
:1002400000F006F8DDF804E0DDE9022304B07047B1
:100250002DE9F0478C460D460446089E002B51D1EF
:100260008A4217466DD9B2FA82FEBEF1000F0BD05A
:10027000CEF1200C01FA0EF520FA0CFC02FA0EF772
:100280004CEA050C00FA0EF44FEA174A250CBCFBA9
:10029000FAF81FFA87F90AFB18CC45EA0C4508FB67
:1002A00009F3AB420AD9ED1908F1FF3280F023813E
:1002B000AB4240F22081A8F102083D44ED1AA4B2FD
:1002C000B5FBFAF00AFB105544EA054400FB09F9B6
:1002D000A14509D9E41900F1FF3380F00A81A14555
:1002E00040F2078102383C44A4EB090440EA08408C
:1002F0000021002E61D024FA0EF4002334607360D4
:10030000BDE8F0878B4207D9002E54D0002186E843
:1003100021000846BDE8F087B3FA83F1002940F0D8
:100320008E80AB4202D3824200F2FA80841A65EBDF
:1003300003050120AC46002E3FD086E81010BDE832
:10034000F08712B90127B7FBF2F7B7FA87FEBEF1C3
:10035000000F34D1EB1B3A0C1FFA87FC0121B3FBD1
:10036000F2F8250C02FB183345EA03450CFB08F3B1
:10037000AB4207D9ED1908F1FF3002D2AB4200F2CF
:10038000D1808046ED1AA3B2B5FBF2F002FB105506
:1003900043EA05440CFB00FCA44507D9E41900F12D
:1003A000FF3302D2A44500F2B8801846A4EB0C0437
:1003B00040EA08409DE731463046BDE8F087CEF17F
:1003C000200405FA0EF307FA0EF720FA04F83A0CA7
:1003D00025FA04F448EA0308B4FBF2F14FEA1845A1
:1003E00002FB11441FFA87FC45EA044501FB0CF3AC
:1003F000AB4200FA0EF409D9ED1901F1FF3080F09B
:100400008A80AB4240F2878002393D44EB1A1FFAE2
:1004100088F5B3FBF2F002FB103345EA034500FB1D
:100420000CF3AB4207D9ED1900F1FF386FD2AB42A4
:100430006DD902383D44EB1A40EA01418FE7C1F122
:10044000200722FA07F88B4005FA01F448EA030373
:1004500020FA07FE4FEA134CFD404EEA040EB5FBAE
:10046000FCF94FEA1E440CFB19551FFA83F844EAC5
:10047000054509FB08F4AC4202FA01F200FA01FA60
:1004800008D9ED1809F1FF3043D2AC4241D9A9F1A6
:1004900002091D442D1B1FFA8EFEB5FBFCF00CFB60
:1004A00010554EEA054400FB08F8A04507D9E418AA
:1004B00000F1FF3529D2A04527D902381C4440EA73
:1004C0000940A4EB0804A0FB02894C45C6464D46F2
:1004D00015D312D056B1BAEB0E0364EB050404FA3F
:1004E00007F7CB401F43CC40376074600021BDE864
:1004F000F0871846F8E69046E0E6C245EAD2B8EB47
:10050000020E69EB03050138E4E72846D7E74046C9
:1005100091E78146BEE7014678E702383C4445E76B
:10052000084608E7A8F102083D442BE7704700BFE2
:1005300038B50E4B05460E4A18784FF47A73B3FB64
:10054000F0F31068B0FBF3F000F09CF8044658B9E3
:100550000F2D09D8024629464FF0FF3000F04EF823
:10056000044B20461D6038BD012038BD000000202E
:10057000800000200400002008B5032000F02CF8C3
:100580000020FFF7D5FF02F0D3F8002008BD0000DF
:10059000034A044B11681B780B441360704700BF7B
:1005A000A800002000000020014B1868704700BF21
:1005B000A800002038B50446FFF7F6FF0546631C87
:1005C0001EBF044B1B78E418FFF7EEFF401B84426C
:1005D000FAD838BD00000020074A0002D36800F4B2
:1005E000E06023F4E0631B041B0C43F0BF6343F49F
:1005F00000330343D360704700ED00E0194B30B582
:10060000DC68C4F30224C4F10703251D042B28BFB2
:100610000423062D4FF001058CBF033C002405FA8E
:1006200003F3002803F1FF3301EA030101FA04F1A7
:1006300005FA04F404F1FF3402EA040242EA01027A
:100640004FEA021205DA00F00F00D2B2064B1A543C
:1006500030BD00F16040D2B200F5614080F8002367
:1006600030BD00BF00ED00E014ED00E042090123C1
:1006700000F01F0003FA00F0014B43F8220070471E
:1006800000E100E00138B0F1807F0AD2064BF02192
:10069000064A5860002082F82310072298601A60EA
:1006A00070470120704700BF10E000E000ED00E05F
:1006B00090F83530022B03D080234365012070472A
:1006C0000268052380F835300020136823F0010309
:1006D000136070472DE9F04F0B6885B0DFF8A881F3
:1006E00001930023664ADFF8A4914FF0010E019CAC
:1006F0000EFA03FE0EEA0406B64540F0AB804C68E5
:1007000024F01007022F16D14FEAD30A03F0070B8B
:100710004FF00F0C00EB8A0A4FEA8B0BDAF82050EF
:100720000CFA0BFC25EA0C0C0D6905FA0BF545EAF1
:100730000C05CAF820504FEA430A0325D0F800B050
:1007400004F0030C05FA0AF5013F0CFA0AFCED432C
:10075000012F0BEA050B4CEA0B0CC0F800C011D8B6
:10076000876807EA050BCF6807FA0AFC4CEA0B0713
:100770008760476827EA0E0EC4F300179F4047EAD8
:100780000E074760C7683D408F6807FA0AF73D4388
:10079000C560E5005ED5D8F8445023F0030703F0A8
:1007A000030E4FF00F0C45F4804507F180474FEAE8
:1007B0008E0EC8F8445007F59C37D8F8445005F41D
:1007C00080450395039D0CFA0EF5D7F808A02AEA98
:1007D000050C2C4DA84244D005F58065A84242D0B6
:1007E00005F58065A84240D005F58065A8423ED059
:1007F00005F58065A8423CD048453CD005F500652C
:10080000A8423AD005F58065A84214BF08250725FF
:1008100005FA0EF514F4803F45EA0C05BD606FEA59
:10082000060715680CBF3D40354314F4003F1560C2
:1008300055680CBF3D40354314F4801F55609568E2
:100840000CBF3D403543A4029560D56854BF3D4080
:100850003543D5600133102B7FF447AF05B0BDE8B9
:10086000F08F0025D4E70125D2E70225D0E7032544
:10087000CEE70425CCE70525CAE70625C8E700BF73
:10088000003C0140000002400038024000140240D9
:100890000AB1816170470904FBE72DE9F041044684
:1008A0008AB000286BD090F8BD3303F0FF021BB96B
:1008B00080F8BC2301F0EAFF254603236E4604F1CD
:1008C000040855F8100B84F8BD3301F010FC0FCD6F
:1008D0000FC60FCD0FC695E8030004F1100586E89A
:1008E000030098E80E002068012601F0C5FB0021F6
:1008F000206801F002FC002122462346084683F8C6
:100900003C101C33D984013183F821600F2983F80E
:1009100023009862D8625863F1D100231F4682F801
:10092000FC31013382F8FD711C320F2B82F8E37128
:10093000C2F8E871C2F8EC71C2F8F471EFD10FCDD2
:100940006E460FC60FCD0FC695E8030086E803007C
:1009500098E80E00206801F011FC012384F838703B
:1009600084F8BD33636A012B02D1204600F009F8F8
:10097000206801F0BBFC00200AB0BDE8F081012036
:10098000FAE7012102680346C0F8F813002083F853
:10099000F003936943F000639361536D43F0805318
:1009A00043F0030353657047024A136843F48073AE
:1009B0001360704700700040194B37B51A6C194C22
:1009C00042F080521A641B6C03F080530193019B28
:1009D000236843F480332360FFF7E6FD0546636830
:1009E000DA030CD5236843F400332360FFF7DCFD02
:1009F0000C4C054663689B030AD5002006E0FFF710
:100A0000D3FD401BB0F57A7FE9D9032003B030BD98
:100A1000FFF7CAFD401BB0F57A7FEBD9F5E700BFC1
:100A200000380240007000402DE9F341044618B937
:100A3000012002B0BDE8F0810368D80710D4236814
:100A400099075ED42368190700F1A38023685A0729
:100A500000F1C480A269002A40F02E810020E8E75E
:100A6000934B9A6802F00C02042A07D09A6802F0AD
:100A70000C02082A0AD15B685A0207D58C4B1B6806
:100A80009B03DCD56368002BD9D1D1E76368884D1F
:100A9000B3F5803F11D12B6843F480332B60FFF70F
:100AA00083FD834D06462B689F03C8D4FFF77CFD6A
:100AB000801B6428F7D90320BBE79BB92B6823F47C
:100AC00080332B602B6823F480232B60FFF76CFDB1
:100AD00006462B689803B2D5FFF766FD801B642895
:100AE000F7D9E8E7B3F5A02F2B6803D143F48023AF
:100AF0002B60D0E723F480332B602B6823F4802312
:100B0000CCE76B4B9A6812F00C0F07D09A6802F092
:100B10000C02082A11D15B6859020ED4644B1A6882
:100B2000920702D5E268012A82D11A68216922F06F
:100B3000F80242EAC1021A6084E7E3685C4DBBB187
:100B40002B6843F001032B60FFF72EFD06462B6850
:100B50009F0707D52B68226923F0F80343EAC203F5
:100B60002B606FE7FFF720FD801B0228EFD9A2E77B
:100B70002B6823F001032B60FFF716FD06462B6858
:100B800098077FF55FAFFFF70FFD801B0228F6D9AE
:100B900091E76369464D83B16B6F43F001036B6767
:100BA000FFF702FD06466B6F9B073FF54FAFFFF760
:100BB000FBFC801B0228F6D97DE76B6F23F0010355
:100BC0006B67FFF7F1FC06466B6F9F077FF53EAF43
:100BD000FFF7EAFC801B0228F6D96CE7344B1A6C4D
:100BE000D00027D41A6C012642F080521A641B6C84
:100BF00003F080530193019B2E4D2B68D9051BD523
:100C0000A3682B4D012B27D12B6F43F001032B67DA
:100C100041F28835FFF7C8FC254F80463B6F9B07A4
:100C20003FD5002E3FF416AF214A136C23F08053BA
:100C300013640FE70026DFE72B6843F480732B6013
:100C4000FFF7B2FC07462B68DA05D9D4FFF7ACFCF6
:100C5000C01B6428F7D92EE7ABB92B6F41F2883857
:100C600023F001032B672B6F23F004032B67FFF79F
:100C70009BFC07462B6F9807D3D5FFF795FCC01B4D
:100C80004045F7D917E7052B2B6F03D143F0040339
:100C90002B67B9E723F001032B672B6F23F00403C5
:100CA000B5E7FFF781FCA0EB0800A842B6D902E740
:100CB0000038024000700040244DAB6803F00C0384
:100CC000082B3FF4B5AE2B68022A23F080732B600B
:100CD0002ED1FFF769FC06462B68990122D4226ABF
:100CE000E3691343626A43F0005343EA8213E26A02
:100CF00043EA0263A26A154C5208013A43EA0243EE
:100D00006B602B6843F080732B60FFF74DFC05464A
:100D100023689A013FF5A2AEFFF746FC401B02286C
:100D2000F6D9C8E6FFF740FC801B0228D4D9C2E6FA
:100D3000FFF73AFC04462B689B017FF58FAEFFF767
:100D400033FC001B0228F6D9B5E600BF003802408C
:100D5000134908B58B6803F00C03042B03D0082B50
:100D600003D0104808BD104808BD4A684B68496860
:100D700002F03F0213F48003C1F388111ABF0A483E
:100D800000230848A1FB0001FFF74AFA044B5B6807
:100D9000C3F3014301335B00B0FBF3F008BD00BFB8
:100DA000003802400024F40000127A002DE9F041DE
:100DB0000D46044610B90120BDE8F081464A13688B
:100DC00003F00F038B4228D321688F0730D4C80764
:100DD00043D4414A136803F00F039D4267D322684E
:100DE000510770D4130707D53C4A2169936823F44F
:100DF000604343EAC1039360FFF7AAFF374B384AC9
:100E00009B68C3F30313D35CD840364B18600020B3
:100E1000FFF78EFB0020BDE8F081136823F00F037D
:100E20000B431360136803F00F039942C3D1CBE760
:100E300011F0040F294B03D09A6842F4E0529A60F3
:100E40000E0703D59A6842F460429A609A68A068D7
:100E500022F0F00202439A60B9E761681F4B012952
:100E60001A681CD112F4003FA5D09A6841F2883864
:100E70001A4E22F003020A439A60FFF795FB0746D9
:100E8000B368626803F00C03B3EB820FA1D0FFF7E5
:100E90008BFBC01B4045F3D90320BDE8F08102293C
:100EA00002D112F0007FDFE712F0020FDCE71368D7
:100EB00023F00F032B431360136803F00F039D42CD
:100EC0007FF479AF8BE70549E0688B6823F4E05342
:100ED00003438B6086E700BF003C024000380240BD
:100EE000652A000880000020044B054A9B68C3F374
:100EF0008223D35C034A1068D84070470038024010
:100F0000752A000880000020044B054A9B68C3F343
:100F10004233D35C034A1068D8407047003802401F
:100F2000752A0008800000202DE9F7430268044676
:100F300012F001060BD0B84B996821F400019960BA
:100F4000C66A99683143B6FA86F67609996012F452
:100F5000002512D0B049656BD1F88C30B5F5801FF3
:100F600023F4401308BF012643EA050316BFB5FA70
:100F700085F500256D09C1F88C30D70210D5A6483B
:100F8000A16BD0F88C30B1F5800F23F4400343EA15
:100F90000103C0F88C3000F04C81002908BF012506
:100FA000900631D59C4B9D4F1A6C42F080521A64CA
:100FB0001B6C03F080530193019B3B6843F48073E7
:100FC0003B60FFF7F1FA80463B68D90540F1338179
:100FD000914F3B6F13F4407340F03881A36A03F4E0
:100FE0004072B2F5407F8C4A40F05681916823F000
:100FF000704021F4F81120F4407001439160C3F374
:101000000B03116F0B4313672368DF060CD5824A6D
:10101000D2F88C1021F08071C2F88C10D2F88C10AC
:10102000206B0143C2F88C10580408D57A49E06D52
:10103000D1F8902022F440320243C1F890201904E4
:1010400008D57549206ED1F8902022F44022024341
:10105000C1F89020DA0308D56F49606ED1F890206E
:1010600022F440120243C1F890205F0608D56A4975
:10107000E06BD1F8902022F003020243C1F89020E7
:10108000180608D56449206CD1F8902022F00C0293
:101090000243C1F89020D90508D55F49606CD1F8AA
:1010A000902022F030020243C1F890209A0508D522
:1010B0005949A06CD1F8902022F0C0020243C1F837
:1010C00090205F0508D55449E06CD1F8902022F4B7
:1010D00040720243C1F89020180508D54E49206D92
:1010E000D1F8902022F440620243C1F89020D90444
:1010F00008D54949606DD1F8902022F4405202434E
:10110000C1F890209A0408D54349A06DD1F89020E9
:1011100022F440420243C1F890209F020CD53E4881
:10112000616FD0F89020B1F1006F22F0006208BF2B
:1011300001250A43C0F89020580308D53649E06ECF
:10114000D1F8902022F040720243C1F89020190299
:1011500008D53149A06FD1F8902022F08052024387
:10116000C1F890205A0108D52B49E06FD1F89020A2
:1011700022F000520243C1F89020002E40F09080EF
:10118000B3F1007F00F08C80012D50D1224D2B68EF
:1011900023F080532B60FFF707FA06462B689F0069
:1011A00000F1E1802068050301D5636B1BB1C1022A
:1011B00018D5A36BB3B918496369D1F8882025699C
:1011C0001B0602F4403243EA85131343C1F888300A
:1011D000D1F88C30226A23F4F853013A43EA02230F
:1011E000C1F88C30820210D5636FB3F1006F0CD15F
:1011F0000949A369D1F8882020691B0402F07062B4
:1012000043EA80131343C1F88830034C236843F04A
:101210008053236004E000BF0038024000700040AB
:10122000FFF7C2F9054623689B0040F1A380002028
:1012300009E00126B4E6FFF7B7F9A0EB080064283F
:101240007FF6C2AE032003B0BDE8F083A26A02F4C9
:10125000407293423FF4C2AE3B6F3A6F23F4407347
:1012600042F480323A673A6F22F480323A673B6741
:101270003B6FDA077FF5B2AEFFF796F941F2883996
:1012800080463B6F9B073FF5A9AEFFF78DF9A0EBBA
:1012900008004845F5D9D5E7916821F4F811ADE685
:1012A000384E336823F080633360FFF77DF90746DB
:1012B00033681B0151D42268D7070DD5E36A5BB9A7
:1012C000A368D6F8841060681B0701F0706143EAD8
:1012D00080130B43C6F88430100303D5636BB3F55A
:1012E000801F05D0D10219D5A36BB3F5800F15D19E
:1012F0002449E368D1F8840066681B0600F0E040EA
:1013000043EA86130343C1F88430D1F88C00E369C3
:1013100020F01F00013B0343C1F88C3092010AD535
:10132000E36862681B0643EA8213A26843EA027319
:10133000144AC2F88430134E336843F0806333603C
:10134000FFF732F9074633681B013FF51DAFFFF782
:101350002BF9C01B6428F6D974E7FFF725F9C01BE9
:101360006428A5D96EE7FFF71FF9801B64287FF674
:1013700015AF67E7FFF718F9401B64287FF653AFF6
:1013800060E700BF00380240304A0368904212D044
:10139000B0F1804F0FD0A2F57C4290420BD002F505
:1013A0008062904207D002F58062904203D002F53D
:1013B000784290421DD14A6823F070031343234AB8
:1013C000904204D123F44073CA68134328E0B0F17B
:1013D000804FF7D01E4A9042F4D002F580629042CE
:1013E000F0D002F580629042ECD002F57842904253
:1013F000E8D0184A9042E5D002F580629042E1D0F0
:1014000002F580629042DDD0A2F598329042D9D0A8
:1014100002F580629042D5D002F580629042D1D030
:101420004A6923F08003134303608B68C3620B682F
:101430008362064B984206D003F58063984202D03F
:101440000123436170470B690363F9E70000014022
:10145000000400400040014010B50446A0B190F8DF
:101460003D3003F0FF021BB980F83C2001F078F911
:1014700002232068211D84F83D30FFF785FF0123FA
:10148000002084F83D3010BD012010BD036A23F018
:10149000010370B50362036A4268846923F00203A2
:1014A0000D6824F4803424F073042C438D682B439E
:1014B0000C4DA84209D005F58065A84205D04260D0
:1014C0004A6884614263036270BDCD6823F00803FB
:1014D0008E6922F440722B434D69354323F0040397
:1014E0002A43ECE700000140036A23F0100370B5C3
:1014F0000362036A4268846923F020030D6824F0C4
:10150000807424F4E64444EA05248D6843EA051314
:101510000D4DA84209D005F58065A84205D042606E
:101520004A6884618263036270BDCD6823F08003E2
:101530008E6922F4406243EA05134D69354323F076
:10154000400342EA8502EAE700000140036A23F40F
:10155000807370B50362036A4268C46923F4007340
:101560000D6824F4803424F073042C438D6843EA1E
:1015700005230E4DA84209D005F58065A84205D087
:1015800042604A68C461C263036270BDCD6823F4DF
:1015900000638E6922F4405243EA05234D693543C6
:1015A00023F4806342EA0512EAE700BF000001402D
:1015B000036A23F4805330B50362046A4268C36946
:1015C00024F400540D6823F0807323F4E64343EAC7
:1015D00005238D6844EA0534094DA84209D005F574
:1015E0008065A84205D04260C3614B680364046211
:1015F00030BD22F480424D6942EA8512F3E700BF14
:101600000000014010B50124036A8A408C4023EA9F
:1016100004030362036A1A43026210BD10B5044654
:1016200001220068FFF7EEFF2368084A934203D0C7
:1016300002F58062934203D15A6C42F400425A642C
:101640001A68002042F001021A6010BD000001403B
:10165000036A23F4803330B50362026A4468436D41
:1016600022F400320D6823F4803323F070032B43FF
:101670008D6842EA0542094DA84203D005F5806510
:10168000A84204D124F480344D6944EA052444601E
:1016900043654B688365026230BD00BF00000140B6
:1016A000036A23F4801330B50362026A4468436D11
:1016B00022F400120D6823F0807323F4E04343EA20
:1016C00005238D6842EA0552084DA84203D005F56E
:1016D0008065A84204D124F480244D6944EA85241D
:1016E000446043654B68C365026230BD0000014041
:1016F00090F83C30012B30B51CD002680E4D536879
:10170000AA42946803D005F58065AA4203D123F468
:1017100070034D682B430D6823F07003896824F033
:1017200080042B43214353600023916080F83C30B8
:10173000184630BD022030BD0000014090F83C301A
:10174000012B10B538D0CB688A6823F440731B4C4A
:1017500013434A6823F4806313430A6823F4006345
:1017600013430A6923F4805313434A6923F4005353
:1017700013438A6A23F4404313438A6923F4702392
:1017800043EA02430268A24203D004F58064A24205
:101790000CD14C6A23F4700343EA0453CC69096A00
:1017A00023F08073234323F000730B43536400231F
:1017B00080F83C30184610BD022010BD00000140EA
:1017C00038B590F83C3004460D460220012B10D06D
:1017D0000123082A84F83D0084F83C3043D009D81E
:1017E000FAB1042A2ED00123002084F83D3084F879
:1017F0003C0038BD102A47D0142A56D00C2AF2D10A
:101800002068FFF7D5FE23682969DA6942F400628F
:10181000DA61DA6922F48062DA61DA6942EA012285
:1018200030E02068FFF732FE236829699A6942F0A8
:1018300008029A619A6922F004029A619A690A433D
:101840009A61D0E72068FFF74FFE236829699A69FB
:1018500042F400629A619A6922F480629A619A69FC
:1018600042EA0122ECE72068FFF770FE236829694D
:10187000DA6942F00802DA61DA6922F00402DA6118
:10188000DA690A43DA61AEE72068FFF7E1FE236810
:1018900009695A6D42F008025A655A6D22F0040235
:1018A0005A655A6D0A435A659DE72068FFF7F8FEAE
:1018B000236809695A6D42F400625A655A6D22F430
:1018C00080625A655A6D42EA0122ECE703681A68A1
:1018D00022F490721A609A6822F001029A60202322
:1018E00080F86A30704790F86A30202B3DD100298B
:1018F00039D0002A37D090F86830012B35D0012339
:101900004165A0F8582080F868308368A0F85A2014
:10191000B3F5805F19D10369ABB940F2FF13A0F8AA
:101920005C3000232222C36680F86A20026880F8B7
:1019300068301846916841F001019160116841F4E6
:10194000907111607047FF23E9E723B90369002B09
:10195000F9D07F23E3E7B3F1805FE2D10369002B85
:10196000F7D03F23DBE701207047022070472DE9C5
:10197000F041069D04460F46164698462168CA69FE
:1019800037EA02030CBF01220022B24202D000203B
:10199000BDE8F0816B1CF2D09DB9236803201A6862
:1019A00022F4D0721A609A6822F001029A60202311
:1019B00084F8693084F86A30002384F86830BDE820
:1019C000F081FEF7F1FDA0EB08008542D6D8E4E7F0
:1019D0002DE9F3411F4690F8693004460D46202B4F
:1019E00090464CD1002948D0002A46D090F8683063
:1019F000012B44D0012380F868300023C3662123E3
:101A000080F86930FEF7D0FD0646A4F85080A4F8AF
:101A10005280B4F8522092B262B900973346402106
:101A20002046FFF7A4FF98B9202384F8680084F8C3
:101A300069300EE0B4F85230002200978021013B5B
:101A400020469BB2A4F852303346FFF790FF18B1FE
:101A5000032002B0BDE8F081A3682268B3F5805F7F
:101A600007D123692BB935F8023BC3F3080393620E
:101A7000CFE72B7801359362CBE70120E9E702201D
:101A8000E7E7704790F86A300268222B10B52AD138
:101A90008368B0F85C10B3F5805F436D1DD10469B5
:101AA000DCB9526A114023F8021B4365B0F85A4072
:101AB000013CA4B2A0F85A406CB903681A6822F439
:101AC00090721A609A6822F001029A60202380F8CE
:101AD0006A3000F01BFE002010BD526A5C1C1140F1
:101AE00044651970E2E79369022043F008039361AB
:101AF00010BD70470368DA69196870B516070446A7
:101B00009D6807D1950663D58E0661D5BDE8704006
:101B1000FFF7B8BF15F0010002D111F4907F57D044
:101B2000D50707D5CE0505D501251D62E56E45F023
:101B30000105E566950706D528B102251D62E56E0B
:101B400045F00405E566560706D528B104251D6253
:101B5000E56E45F00205E566150707D58E0600D44B
:101B600020B108201862E36E0343E366E36E002BA6
:101B70006AD0950604D5880602D52046FFF782FF75
:101B8000E36E2046190704D423689D6815F04005CC
:101B90001AD0FFF79BFE23689A68520610D59A6800
:101BA000606E22F040029A6050B1284B0365FEF748
:101BB0007FFD002848D0606EBDE87040036D184777
:101BC0002046FFF796FF70BDFFF793FFE56670BDF7
:101BD00016062BD50D0629D594F86920212A33D174
:101BE000B4F8522092B242B91A6822F080021A6008
:101BF0001A6842F040021A6070BDA268B2F5805FB8
:101C0000E26C0ED1216961B932F8021BC1F30801FF
:101C10009962E264B4F85230013B9BB2A4F85230AE
:101C200070BD511CE16412789A62F3E750060BD53F
:101C30004A0609D51A68204622F040021A6020237D
:101C400084F86930FFF71DFF70BD00BF511C00080C
:101C500008B5806B0023A0F85A30A0F85230FFF787
:101C600048FF08BD38B504460568C3692169A26804
:101C700028680A4361690A4393491A430140206A6C
:101C80000A43E1682A606A6822F440520A436A60A3
:101C9000A269A968024321F430610A43AA608B4A11
:101CA000954219D102F594328949D2F8902002F078
:101CB0000302B3F5004F8A5C40F0B380082A00F2BB
:101CC000AD80DFE812F026007B00E900AB00F500F4
:101CD000AB00AB00AB00FB007E4A954207D102F59A
:101CE000FA327D49D2F8902002F00C02E1E77B4AFB
:101CF00095422BD102F5F832D2F8902002F0300252
:101D0000102A00F0D28016D8DAB9B3F5004F40F0AF
:101D10009F80FFF7E9F861684A0802EB4003B3FBD4
:101D2000F1F39BB2002023F00F02C3F342032168BA
:101D30001343CB6038BD202A00F0AB80302A00F07E
:101D4000BA80B3F5004F69D0012038BD644A95428E
:101D50000ED102F5F632D2F8902002F0C002402AED
:101D600000F0A380D0D9802A00F09380C02AE6E753
:101D70005C4A954210D102F5F432D2F8902002F478
:101D80004072B2F5807F00F09080BDD9B2F5007F3F
:101D90007FD0B2F5407FD2E7534A954217D102F582
:101DA0009232D2F8902002F44062B2F5806F7CD07B
:101DB00007D8002AC5D1B3F5004F54D1FFF7A4F8D6
:101DC000A9E7B2F5006F64D0B2F5406FB7E7474AB4
:101DD00095420FD102F5E032D2F8902002F4405241
:101DE000B2F5805F61D08FD9B2F5005F51D0B2F506
:101DF000405FA4E73E4A9542A3D102F5DE32D2F815
:101E0000902002F44042B2F5804F4ED07FF67CAF76
:101E1000B2F5004F3DD0B2F5404F90E701200023CE
:101E200081E7082A90D801A353F822F0511E000838
:101E3000671E00086D1E0008491D0008831E00086B
:101E4000491D0008491D0008491D0008891E000899
:101E5000FFF74AF8636800EB5300B0FBF3F080B281
:101E6000E860002038BDFFF74FF8F3E762685308D9
:101E700003F5740303F51053B3FBF2F39BB2EB606D
:101E8000EFE7FEF765FFE5E76268530803F50043F7
:101E9000F2E7B3F5004FE9D16068430803F1F4734A
:101EA00003F59043B3FBF0F33BE7B3F5004FE8D104
:101EB000FEF74EFF2FE7B3F5004FE5D1606843080A
:101EC00003F58033EEE700BFF369FFEF0010014038
:101ED000542A000800440040582A000800480040E6
:101EE000004C0040005000400014014000780040C9
:101EF000007C0040436ADA0710B506D50168846AA1
:101F00004A6822F4003222434A609C0706D50168E1
:101F1000C46A4A6822F4803222434A60590706D5CF
:101F20000168046B4A6822F4802222434A601A073F
:101F300006D50168446B4A6822F4004222434A6095
:101F4000DC0606D50168846B8A6822F4805222433D
:101F50008A60990606D50168C46B8A6822F400522B
:101F600022438A605A0610D50168046C4A68B4F5A9
:101F7000801F22F4801242EA04024A6005D14A68B6
:101F8000446C22F4C00222434A601B0606D5026854
:101F9000816C536823F400230B43536010BD37B5A5
:101FA00000250446C566FEF7FFFA2268034612685C
:101FB000120709D42023002084F8693084F86800CF
:101FC00084F86A3003B030BD6FF07E424FF40011E8
:101FD000204600922A46FFF7CAFC0028EAD00320D8
:101FE000F0E710B5044660B390F8693003F0FF02E3
:101FF0001BB980F8682000F0EFFB226824232046FC
:1020000084F86930136823F001031360FFF72AFE98
:10201000012816D0636A13B12046FFF76BFF2368CF
:1020200020465A6822F490425A609A6822F02A02A6
:102030009A601A6842F00102BDE810401A60FFF78A
:10204000AEBF012010BD00000A4B013B01D10320AF
:1020500070470269002AF8DA0369064A43F001036F
:102060000361013AF3D0036913F00103F9D1184673
:10207000704700BF410D030084B038B505AD04467C
:1020800085E80E000A9B012B27D1836B23F4803354
:102090008363C36823F4840323F04003C360C368ED
:1020A00023F44013C360119B012B03D1C36843F495
:1020B0008013C3602046FFF7C7FF089B012B07D1A1
:1020C000A36843F00603A360A36843F02003A36062
:1020D0000020BDE8384004B07047C36843F04003B7
:1020E000C360FFF7B1FF4FF48033A363E5E7836874
:1020F00023F0010383600020704708B5C3680129FD
:1021000023F0C043C36008D1C36843F00053C360E9
:102110003220FEF74FFA002008BD19B9C36843F01A
:102120008043F4E7012008BD8901074A41F02001FE
:102130000161013A05D0036913F02003F9D1184673
:1021400070470320704700BF410D03001023064A6B
:102150000361013A05D0036913F01003F9D1184661
:1021600070470320704700BF410D0300D0F80038CE
:102170001943C0F8001800207047000084B02DE912
:10218000F843044609A8884680E80E0000230B9A0D
:102190000C9F0E991D46139E03F14000013304EB82
:1021A00080000F2B4560F7D1A36B43F40013A363AA
:1021B0005EB9A36B23F40013A363236843F04003C9
:1021C0002360236843F0800323600023012904F582
:1021D0000065C4F8003ED4F80038C4F8003858D17F
:1021E000002A54D100212046FFF7C0FF10212046CD
:1021F000FFF79AFF2046FFF7A9FF002304F51062BE
:102200004FF0904019464FF0006E4FF67F3C2B6127
:102210006B61EB61434540D1002104F530624FF022
:10222000904E4FF0006C08464FF67F388B4246D1F7
:102230002B69012F23F480732B6107D1294B2B636A
:102240002B6B43F4803343F003032B630023A36120
:102250006FF0804363611FB9A36943F01003A3616A
:10226000A269214B1343A3610F9B1BB1A36943F0E8
:102270000803A361012E05D1A36943F0804343F015
:102280000403A3610020BDE8F84304B070470121B6
:10229000A9E70329A4D00321A5E7D2F80090B9F15A
:1022A000000F0ADA3BB9C2F800E011610133C2F84D
:1022B00008C02032AEE71060F7E71160F5E7D2F80A
:1022C0000090B9F1000F0BDA39B9C2F800C0106103
:1022D0000131C2F808802032A8E7C2F800E0F6E732
:1022E0001060F4E70001800000383C8008B5D0F8A9
:1022F000043843F00203C0F804380320FEF75AF90B
:10230000002008BD10B5B4B030220021022408A876
:1023100000F08CFB1422002103A800F087FB0021B1
:10232000802214A800F082FBFEF73EFB204B08A899
:102330001A6C42F080521A641B6C03F080530193B4
:10234000019B1C4B1A6842F440421A601B680E94B1
:1023500003F4404312940293029B012308934FF429
:10236000A02309934FF480030F9304231093D823E1
:10237000119309231393FEF757FBFEF71DFB0F2361
:102380000494002403934FF4A053072103A8069359
:102390004FF4805305940793FEF708FD064B14A8ED
:1023A0002594149328943194FEF7BEFD34B010BDEB
:1023B00000380240007000400009200080B59CB049
:1023C0000024FEF7D9F84FF40058FFF79BFF1422C2
:1023D000002111A800F02AFBA34B4FF48141A34830
:1023E0001A6B01250C264FF4E13742F004021A6300
:1023F0001A6B02F004020092009A1A6B42F08002FB
:102400001A631A6B02F080020192019A1A6B42F071
:1024100010021A631A6B02F010020292029A1A6BEF
:1024200042F002021A631A6B02F002020392039A4C
:102430001A6B42F008021A631A6B02F00802049247
:10244000049A1A6B42F040021A631A6B02F04002BF
:102450000592059A1A6B42F001021A6300221B6B67
:1024600003F001030693069BFEF712FA00224021B7
:102470007F48FEF70DFA7F4B11A97F481293139402
:10248000CDF84480FEF726F94FF4814311A977482F
:102490001193129513941494FEF71CF9402311A97B
:1024A00073481193129513941494FEF713F9802333
:1024B00011A96F48119312941394FEF70BF96F480A
:1024C0006F4B8460C460046146618461C4610462CE
:1024D000446280E88800FFF784FD6A484FF0A0421C
:1024E000062304614461C561046244628562C56279
:1024F0000463654D80E80C0002238361FEF7CDF98B
:1025000021461C220AA807940894099400F08EFA28
:102510002C22214611A800F089FA5C4940F2AF1341
:102520002846AC602C616C61AC6185E80A0042F21F
:102530000F73EB60FEF790FF07A9284607940894F5
:102540000994FFF7D5F8602322460AA928460A9382
:102550004FF43E730C940B930D940E940F941094BF
:10256000FFF72EF940F2EE2304220AA928460B9326
:10257000FFF726F94FF0007311A92846119419931B
:102580001294139414941594179418941A941B94F9
:10259000CDF85880FFF7D2F8284600F0F5F83C480F
:1025A0003C4B8460C460046146618461C461046220
:1025B000446280E88800FFF714FD22462146272068
:1025C000FEF71CF82720FEF751F822462146472047
:1025D000FEF714F84720FEF749F8214628462E4C0E
:1025E000FFF71CF828462D4D0421FFF717F82E465B
:1025F0002B784BB361780A23227864203039284F36
:10260000303ADFF8B4E05943DFF8B08000FB021243
:10261000A17830390A44234902F007000A60002AF1
:102620004FEAE2013860CEF800101F4F12DA28227C
:102630001E491748FFF7CCF9D8F80020134B5A630E
:102640003A689A6300233370032221460B48FFF750
:102650004AF9CDE71F2902DD28221549E9E70428B8
:102660002EDD28221349E4E700380240000402402E
:10267000001802400000111000080240AC000020C9
:10268000004800401C0100202805002000000140F7
:102690006C05002000140140A1000020A0000020D3
:1026A000240500201C0500206805002008000020EB
:1026B0005800002030000020DC050020200500200C
:1026C000D2110138012A09BF01F00F016FF00D038B
:1026D0000E23CEF80010594301F53E71C8F80010E2
:1026E000032803D8DFE800F006090C0F40F2EE23C0
:1026F0003B60A1E740F25233FAE74FF46173F7E72A
:102700004FF47A73F4E740F28A23F1E70122054B94
:1027100005491A700D220A2304480A710522CB705C
:10272000FFF756B9A0000020A10000206C05002092
:102730000A4B82B01A6C42F080521A641A6C02F092
:1027400080520092009A5A6C42F480425A645B6C48
:1027500003F480430193019B02B0704700380240AC
:10276000026882B0074B9A420AD103F59C335A6C37
:1027700042F001025A645B6C03F001030193019B78
:1027800002B070470000014010B586B00446142224
:10279000002101A800F04AF922680D4B9A4215D198
:1027A00003F59C3301A90B481A6B42F010021A631F
:1027B0001B6B03F010030093009B4FF42063019305
:1027C0000223029301230593FDF784FF06B010BD99
:1027D000000001400010024010B514228AB00446E7
:1027E00000210DEB020000F021F92368224A9342F8
:1027F00021D1224B05A922481A6C42F480221A6486
:102800001A6C02F480220192019A1A6B42F00802BB
:102810001A631B6B03F008030293029B4FF440738F
:102820000593022306930323089307230993FDF7D7
:1028300051FF0AB010BD134A9342FAD10F4B05A9BC
:1028400011485A6C42F020025A645A6C02F020027D
:102850000392039A1A6B42F004021A631B6B03F093
:1028600004030493049BC0230593022306930323CC
:10287000089308230993DAE7004800400038024033
:10288000000C0240001401400008024010B588B05E
:1028900004461422002103A800F0C8F82368B3F10D
:1028A000A04F32D11A4C03A91A48236B43F00103FD
:1028B0002363236B03F001030093009B4FF4E85361
:1028C000039302230493032306930A230793FDF73C
:1028D00001FF4FF4007303A90E48039300230493F0
:1028E0000593FDF7F7FE636B43F080036363636B4F
:1028F00003F080030193019B636C43F480436364A2
:10290000636C03F480430293029B08B010BD00BFC8
:1029100000380240000002407047FEE7FEE7FEE795
:10292000FEE7704770477047FDF732BE0148FFF77A
:10293000E1B800BFAC0000200148FFF7DBB800BFE2
:102940006C0500200F490020D1F8883043F4700353
:10295000C1F888300C4B1A6842F001021A60986086
:102960001A6822F0847222F480321A60074A5A6090
:102970001A6822F480221A60D8604FF000638B60DE
:10298000704700BF00ED00E0003802401030002426
:10299000DFF834D0002103E00C4B5B584350043186
:1029A0000B480C4B42189A42F6D30B4A02E0002324
:1029B00042F8043B094B9A42F9D3FFF7C3FF00F0FA
:1029C00011F8FFF7FBFC704700000420902A000874
:1029D000000000208400002084000020E00500208A
:1029E000FEE7000070B50D4E0D4CA41BA410002591
:1029F000A54209D10B4E0C4C00F020F8A41BA410EA
:102A00000025A54205D170BD56F8253098470135FF
:102A1000EEE756F8253098470135F2E7882A000896
:102A2000882A0008882A00088C2A000802440346E5
:102A3000934200D1704703F8011BF9E7F8B500BFD6
:102A4000F8BC08BC9E467047F8B500BFF8BC08BC8F
:042A50009E467047E7
:102A540001040208001010100410101002101010CD
:102A6400080000000000000000010203040607083B
:0C2A740009000000000102030400000043
:082A8000D0D7FF7F0100000028
:042A8800050200083B
:042A8C00E10100085C
:102A900001000000100000006572722121506C6579
:102AA00061736520456E74657220506F7369746937
:102AB0007665204E756D6265720A0D00000000009B
:102AC0006572722121506C6561736520456E746575
:102AD0007220307E342053706565640A0D0000005A
:102AE00000000000000000006572722121506C653A
:102AF00061736520456E74657220307E33312053DA
:102B0000746565720A0D00000000000000000000FE
:042B10000024F400A9
:040000050800299135
:00000001FF
